{
  "_format": "hh-sol-artifact-1",
  "contractName": "Tripleeet",
  "sourceName": "contracts/Tripleeet.sol",
  "abi": [
    {
      "inputs": [],
      "stateMutability": "nonpayable",
      "type": "constructor"
    },
    {
      "anonymous": false,
      "inputs": [
        {
          "indexed": false,
          "internalType": "uint256",
          "name": "id",
          "type": "uint256"
        },
        {
          "indexed": false,
          "internalType": "address",
          "name": "userLockAddress",
          "type": "address"
        },
        {
          "indexed": false,
          "internalType": "address",
          "name": "user",
          "type": "address"
        }
      ],
      "name": "LockAddressUploaded",
      "type": "event"
    },
    {
      "anonymous": false,
      "inputs": [
        {
          "indexed": false,
          "internalType": "uint256",
          "name": "postId",
          "type": "uint256"
        },
        {
          "indexed": false,
          "internalType": "string",
          "name": "postHash",
          "type": "string"
        },
        {
          "indexed": false,
          "internalType": "uint256",
          "name": "postSize",
          "type": "uint256"
        },
        {
          "indexed": false,
          "internalType": "string",
          "name": "postType",
          "type": "string"
        },
        {
          "indexed": false,
          "internalType": "string",
          "name": "postName",
          "type": "string"
        },
        {
          "indexed": false,
          "internalType": "string",
          "name": "postDescription",
          "type": "string"
        },
        {
          "indexed": false,
          "internalType": "uint256",
          "name": "uploadTime",
          "type": "uint256"
        },
        {
          "indexed": false,
          "internalType": "address",
          "name": "uploader",
          "type": "address"
        }
      ],
      "name": "PostUploaded",
      "type": "event"
    },
    {
      "inputs": [],
      "name": "fetchUserLockAddress",
      "outputs": [
        {
          "components": [
            {
              "internalType": "uint256",
              "name": "id",
              "type": "uint256"
            },
            {
              "internalType": "address",
              "name": "userLockAddress",
              "type": "address"
            },
            {
              "internalType": "address",
              "name": "user",
              "type": "address"
            }
          ],
          "internalType": "struct Tripleeet.Lock[]",
          "name": "",
          "type": "tuple[]"
        }
      ],
      "stateMutability": "view",
      "type": "function"
    },
    {
      "inputs": [],
      "name": "fetchUserPosts",
      "outputs": [
        {
          "components": [
            {
              "internalType": "uint256",
              "name": "postId",
              "type": "uint256"
            },
            {
              "internalType": "string",
              "name": "postHash",
              "type": "string"
            },
            {
              "internalType": "uint256",
              "name": "postSize",
              "type": "uint256"
            },
            {
              "internalType": "string",
              "name": "postType",
              "type": "string"
            },
            {
              "internalType": "string",
              "name": "postName",
              "type": "string"
            },
            {
              "internalType": "string",
              "name": "postDescription",
              "type": "string"
            },
            {
              "internalType": "uint256",
              "name": "uploadTime",
              "type": "uint256"
            },
            {
              "internalType": "address",
              "name": "uploader",
              "type": "address"
            }
          ],
          "internalType": "struct Tripleeet.Post[]",
          "name": "",
          "type": "tuple[]"
        }
      ],
      "stateMutability": "view",
      "type": "function"
    },
    {
      "inputs": [],
      "name": "fetchUserProfileHash",
      "outputs": [
        {
          "internalType": "string",
          "name": "",
          "type": "string"
        }
      ],
      "stateMutability": "view",
      "type": "function"
    },
    {
      "inputs": [
        {
          "internalType": "address",
          "name": "_lockAddress",
          "type": "address"
        }
      ],
      "name": "uploadLockAddress",
      "outputs": [],
      "stateMutability": "nonpayable",
      "type": "function"
    },
    {
      "inputs": [
        {
          "internalType": "string",
          "name": "_postHash",
          "type": "string"
        },
        {
          "internalType": "uint256",
          "name": "_postSize",
          "type": "uint256"
        },
        {
          "internalType": "string",
          "name": "_postType",
          "type": "string"
        },
        {
          "internalType": "string",
          "name": "_postName",
          "type": "string"
        },
        {
          "internalType": "string",
          "name": "_postDescription",
          "type": "string"
        }
      ],
      "name": "uploadPost",
      "outputs": [],
      "stateMutability": "nonpayable",
      "type": "function"
    },
    {
      "inputs": [
        {
          "internalType": "string",
          "name": "_userHash",
          "type": "string"
        }
      ],
      "name": "uploadUserHash",
      "outputs": [],
      "stateMutability": "nonpayable",
      "type": "function"
    }
  ],
  "bytecode": "0x608060405234801561001057600080fd5b50600160008190555033600360006101000a81548173ffffffffffffffffffffffffffffffffffffffff021916908373ffffffffffffffffffffffffffffffffffffffff160217905550612077806100696000396000f3fe608060405234801561001057600080fd5b50600436106100625760003560e01c806301b07b9d146100675780631162fe0c146100835780635b50da9a1461009f5780636ade39b9146100bd578063c7c26bc0146100d9578063efe375cf146100f7575b600080fd5b610081600480360381019061007c91906113f9565b610115565b005b61009d600480360381019061009891906114a0565b610206565b005b6100a7610488565b6040516100b49190611704565b60405180910390f35b6100d760048036038101906100d29190611752565b61096d565b005b6100e1610d2a565b6040516100ee919061192e565b60405180910390f35b6100ff611008565b60405161010c919061199a565b60405180910390f35b6002600054141561015b576040517f08c379a000000000000000000000000000000000000000000000000000000000815260040161015290611a08565b60405180910390fd5b600260008190555060008151116101a7576040517f08c379a000000000000000000000000000000000000000000000000000000000815260040161019e90611a74565b60405180910390fd5b80600460003373ffffffffffffffffffffffffffffffffffffffff1673ffffffffffffffffffffffffffffffffffffffff16815260200190815260200160002090805190602001906101fa929190611154565b50600160008190555050565b6002600054141561024c576040517f08c379a000000000000000000000000000000000000000000000000000000000815260040161024390611a08565b60405180910390fd5b6002600081905550600073ffffffffffffffffffffffffffffffffffffffff163373ffffffffffffffffffffffffffffffffffffffff1614156102c4576040517f08c379a00000000000000000000000000000000000000000000000000000000081526004016102bb90611ae0565b60405180910390fd5b600073ffffffffffffffffffffffffffffffffffffffff168173ffffffffffffffffffffffffffffffffffffffff161415610334576040517f08c379a000000000000000000000000000000000000000000000000000000000815260040161032b90611b4c565b60405180910390fd5b61033e60026110d7565b600061034a60026110ed565b905060405180606001604052808281526020018373ffffffffffffffffffffffffffffffffffffffff1681526020013373ffffffffffffffffffffffffffffffffffffffff16815250600660008381526020019081526020016000206000820151816000015560208201518160010160006101000a81548173ffffffffffffffffffffffffffffffffffffffff021916908373ffffffffffffffffffffffffffffffffffffffff16021790555060408201518160020160006101000a81548173ffffffffffffffffffffffffffffffffffffffff021916908373ffffffffffffffffffffffffffffffffffffffff1602179055509050507fb6e9ddc2ba8258682764e913aaea952070bffc2ac47fb570674ab13a713bf65081833360405161047493929190611b8a565b60405180910390a150600160008190555050565b6060600061049660016110ed565b905060008060005b83811015610546573373ffffffffffffffffffffffffffffffffffffffff16600560006104d56001856110fb90919063ffffffff16565b815260200190815260200160002060070160009054906101000a900473ffffffffffffffffffffffffffffffffffffffff1673ffffffffffffffffffffffffffffffffffffffff161415610533576001836105309190611bf0565b92505b808061053e90611c46565b91505061049e565b5060008267ffffffffffffffff811115610563576105626112ce565b5b60405190808252806020026020018201604052801561059c57816020015b6105896111da565b8152602001906001900390816105815790505b50905060005b84811015610962573373ffffffffffffffffffffffffffffffffffffffff16600560006105d96001856110fb90919063ffffffff16565b815260200190815260200160002060070160009054906101000a900473ffffffffffffffffffffffffffffffffffffffff1673ffffffffffffffffffffffffffffffffffffffff16141561094f57600061063d6001836110fb90919063ffffffff16565b9050600060056000838152602001908152602001600020905080604051806101000160405290816000820154815260200160018201805461067d90611cbe565b80601f01602080910402602001604051908101604052809291908181526020018280546106a990611cbe565b80156106f65780601f106106cb576101008083540402835291602001916106f6565b820191906000526020600020905b8154815290600101906020018083116106d957829003601f168201915b505050505081526020016002820154815260200160038201805461071990611cbe565b80601f016020809104026020016040519081016040528092919081815260200182805461074590611cbe565b80156107925780601f1061076757610100808354040283529160200191610792565b820191906000526020600020905b81548152906001019060200180831161077557829003601f168201915b505050505081526020016004820180546107ab90611cbe565b80601f01602080910402602001604051908101604052809291908181526020018280546107d790611cbe565b80156108245780601f106107f957610100808354040283529160200191610824565b820191906000526020600020905b81548152906001019060200180831161080757829003601f168201915b5050505050815260200160058201805461083d90611cbe565b80601f016020809104026020016040519081016040528092919081815260200182805461086990611cbe565b80156108b65780601f1061088b576101008083540402835291602001916108b6565b820191906000526020600020905b81548152906001019060200180831161089957829003601f168201915b50505050508152602001600682015481526020016007820160009054906101000a900473ffffffffffffffffffffffffffffffffffffffff1673ffffffffffffffffffffffffffffffffffffffff1673ffffffffffffffffffffffffffffffffffffffff168152505084868151811061093257610931611cf0565b5b602002602001018190525060018561094a9190611bf0565b945050505b808061095a90611c46565b9150506105a2565b508094505050505090565b600260005414156109b3576040517f08c379a00000000000000000000000000000000000000000000000000000000081526004016109aa90611a08565b60405180910390fd5b600260008190555060008551116109ff576040517f08c379a00000000000000000000000000000000000000000000000000000000081526004016109f690611d6b565b60405180910390fd5b6000835111610a43576040517f08c379a0000000000000000000000000000000000000000000000000000000008152600401610a3a90611dd7565b60405180910390fd5b6000815111610a87576040517f08c379a0000000000000000000000000000000000000000000000000000000008152600401610a7e90611e43565b60405180910390fd5b6000825111610acb576040517f08c379a0000000000000000000000000000000000000000000000000000000008152600401610ac290611eaf565b60405180910390fd5b600073ffffffffffffffffffffffffffffffffffffffff163373ffffffffffffffffffffffffffffffffffffffff161415610b3b576040517f08c379a0000000000000000000000000000000000000000000000000000000008152600401610b3290611ae0565b60405180910390fd5b60008411610b7e576040517f08c379a0000000000000000000000000000000000000000000000000000000008152600401610b7590611f1b565b60405180910390fd5b610b8860016110d7565b6000610b9460016110ed565b90506040518061010001604052808281526020018781526020018681526020018581526020018481526020018381526020014281526020013373ffffffffffffffffffffffffffffffffffffffff1681525060056000838152602001908152602001600020600082015181600001556020820151816001019080519060200190610c1f929190611154565b50604082015181600201556060820151816003019080519060200190610c46929190611154565b506080820151816004019080519060200190610c63929190611154565b5060a0820151816005019080519060200190610c80929190611154565b5060c0820151816006015560e08201518160070160006101000a81548173ffffffffffffffffffffffffffffffffffffffff021916908373ffffffffffffffffffffffffffffffffffffffff1602179055509050507f12ddc1e75077bb29be0c826a1f3d5864f4f38e8b0cf74b74c2eae1a0f6217a458187878787874233604051610d12989796959493929190611f3b565b60405180910390a15060016000819055505050505050565b60606000610d3860026110ed565b905060008060005b83811015610de8573373ffffffffffffffffffffffffffffffffffffffff1660066000610d776001856110fb90919063ffffffff16565b815260200190815260200160002060020160009054906101000a900473ffffffffffffffffffffffffffffffffffffffff1673ffffffffffffffffffffffffffffffffffffffff161415610dd557600183610dd29190611bf0565b92505b8080610de090611c46565b915050610d40565b5060008267ffffffffffffffff811115610e0557610e046112ce565b5b604051908082528060200260200182016040528015610e3e57816020015b610e2b611235565b815260200190600190039081610e235790505b50905060005b84811015610ffd573373ffffffffffffffffffffffffffffffffffffffff1660066000610e7b6001856110fb90919063ffffffff16565b815260200190815260200160002060020160009054906101000a900473ffffffffffffffffffffffffffffffffffffffff1673ffffffffffffffffffffffffffffffffffffffff161415610fea576000610edf6001836110fb90919063ffffffff16565b9050600060066000838152602001908152602001600020905080604051806060016040529081600082015481526020016001820160009054906101000a900473ffffffffffffffffffffffffffffffffffffffff1673ffffffffffffffffffffffffffffffffffffffff1673ffffffffffffffffffffffffffffffffffffffff1681526020016002820160009054906101000a900473ffffffffffffffffffffffffffffffffffffffff1673ffffffffffffffffffffffffffffffffffffffff1673ffffffffffffffffffffffffffffffffffffffff1681525050848681518110610fcd57610fcc611cf0565b5b6020026020010181905250600185610fe59190611bf0565b945050505b8080610ff590611c46565b915050610e44565b508094505050505090565b6060600460003373ffffffffffffffffffffffffffffffffffffffff1673ffffffffffffffffffffffffffffffffffffffff168152602001908152602001600020805461105490611cbe565b80601f016020809104026020016040519081016040528092919081815260200182805461108090611cbe565b80156110cd5780601f106110a2576101008083540402835291602001916110cd565b820191906000526020600020905b8154815290600101906020018083116110b057829003601f168201915b5050505050905090565b6001816000016000828254019250508190555050565b600081600001549050919050565b600082828461110a9190611bf0565b915081101561114e576040517f08c379a000000000000000000000000000000000000000000000000000000000815260040161114590612021565b60405180910390fd5b92915050565b82805461116090611cbe565b90600052602060002090601f01602090048101928261118257600085556111c9565b82601f1061119b57805160ff19168380011785556111c9565b828001600101855582156111c9579182015b828111156111c85782518255916020019190600101906111ad565b5b5090506111d69190611282565b5090565b60405180610100016040528060008152602001606081526020016000815260200160608152602001606081526020016060815260200160008152602001600073ffffffffffffffffffffffffffffffffffffffff1681525090565b604051806060016040528060008152602001600073ffffffffffffffffffffffffffffffffffffffff168152602001600073ffffffffffffffffffffffffffffffffffffffff1681525090565b5b8082111561129b576000816000905550600101611283565b5090565b6000604051905090565b600080fd5b600080fd5b600080fd5b600080fd5b6000601f19601f8301169050919050565b7f4e487b7100000000000000000000000000000000000000000000000000000000600052604160045260246000fd5b611306826112bd565b810181811067ffffffffffffffff82111715611325576113246112ce565b5b80604052505050565b600061133861129f565b905061134482826112fd565b919050565b600067ffffffffffffffff821115611364576113636112ce565b5b61136d826112bd565b9050602081019050919050565b82818337600083830152505050565b600061139c61139784611349565b61132e565b9050828152602081018484840111156113b8576113b76112b8565b5b6113c384828561137a565b509392505050565b600082601f8301126113e0576113df6112b3565b5b81356113f0848260208601611389565b91505092915050565b60006020828403121561140f5761140e6112a9565b5b600082013567ffffffffffffffff81111561142d5761142c6112ae565b5b611439848285016113cb565b91505092915050565b600073ffffffffffffffffffffffffffffffffffffffff82169050919050565b600061146d82611442565b9050919050565b61147d81611462565b811461148857600080fd5b50565b60008135905061149a81611474565b92915050565b6000602082840312156114b6576114b56112a9565b5b60006114c48482850161148b565b91505092915050565b600081519050919050565b600082825260208201905092915050565b6000819050602082019050919050565b6000819050919050565b61150c816114f9565b82525050565b600081519050919050565b600082825260208201905092915050565b60005b8381101561154c578082015181840152602081019050611531565b8381111561155b576000848401525b50505050565b600061156c82611512565b611576818561151d565b935061158681856020860161152e565b61158f816112bd565b840191505092915050565b6115a381611462565b82525050565b6000610100830160008301516115c26000860182611503565b50602083015184820360208601526115da8282611561565b91505060408301516115ef6040860182611503565b50606083015184820360608601526116078282611561565b915050608083015184820360808601526116218282611561565b91505060a083015184820360a086015261163b8282611561565b91505060c083015161165060c0860182611503565b5060e083015161166360e086018261159a565b508091505092915050565b600061167a83836115a9565b905092915050565b6000602082019050919050565b600061169a826114cd565b6116a481856114d8565b9350836020820285016116b6856114e9565b8060005b858110156116f257848403895281516116d3858261166e565b94506116de83611682565b925060208a019950506001810190506116ba565b50829750879550505050505092915050565b6000602082019050818103600083015261171e818461168f565b905092915050565b61172f816114f9565b811461173a57600080fd5b50565b60008135905061174c81611726565b92915050565b600080600080600060a0868803121561176e5761176d6112a9565b5b600086013567ffffffffffffffff81111561178c5761178b6112ae565b5b611798888289016113cb565b95505060206117a98882890161173d565b945050604086013567ffffffffffffffff8111156117ca576117c96112ae565b5b6117d6888289016113cb565b935050606086013567ffffffffffffffff8111156117f7576117f66112ae565b5b611803888289016113cb565b925050608086013567ffffffffffffffff811115611824576118236112ae565b5b611830888289016113cb565b9150509295509295909350565b600081519050919050565b600082825260208201905092915050565b6000819050602082019050919050565b60608201600082015161187f6000850182611503565b506020820151611892602085018261159a565b5060408201516118a5604085018261159a565b50505050565b60006118b78383611869565b60608301905092915050565b6000602082019050919050565b60006118db8261183d565b6118e58185611848565b93506118f083611859565b8060005b8381101561192157815161190888826118ab565b9750611913836118c3565b9250506001810190506118f4565b5085935050505092915050565b6000602082019050818103600083015261194881846118d0565b905092915050565b600082825260208201905092915050565b600061196c82611512565b6119768185611950565b935061198681856020860161152e565b61198f816112bd565b840191505092915050565b600060208201905081810360008301526119b48184611961565b905092915050565b7f5265656e7472616e637947756172643a207265656e7472616e742063616c6c00600082015250565b60006119f2601f83611950565b91506119fd826119bc565b602082019050919050565b60006020820190508181036000830152611a21816119e5565b9050919050565b7f557365722048617368206e6f7420666f756e6400000000000000000000000000600082015250565b6000611a5e601383611950565b9150611a6982611a28565b602082019050919050565b60006020820190508181036000830152611a8d81611a51565b9050919050565b7f53656e6465722041646472657373206e6f7420666f756e640000000000000000600082015250565b6000611aca601883611950565b9150611ad582611a94565b602082019050919050565b60006020820190508181036000830152611af981611abd565b9050919050565b7f4c6f636b2041646472657373206e6f7420666f756e6400000000000000000000600082015250565b6000611b36601683611950565b9150611b4182611b00565b602082019050919050565b60006020820190508181036000830152611b6581611b29565b9050919050565b611b75816114f9565b82525050565b611b8481611462565b82525050565b6000606082019050611b9f6000830186611b6c565b611bac6020830185611b7b565b611bb96040830184611b7b565b949350505050565b7f4e487b7100000000000000000000000000000000000000000000000000000000600052601160045260246000fd5b6000611bfb826114f9565b9150611c06836114f9565b9250827fffffffffffffffffffffffffffffffffffffffffffffffffffffffffffffffff03821115611c3b57611c3a611bc1565b5b828201905092915050565b6000611c51826114f9565b91507fffffffffffffffffffffffffffffffffffffffffffffffffffffffffffffffff821415611c8457611c83611bc1565b5b600182019050919050565b7f4e487b7100000000000000000000000000000000000000000000000000000000600052602260045260246000fd5b60006002820490506001821680611cd657607f821691505b60208210811415611cea57611ce9611c8f565b5b50919050565b7f4e487b7100000000000000000000000000000000000000000000000000000000600052603260045260246000fd5b7f506f737448617368206e6f7420666f756e640000000000000000000000000000600082015250565b6000611d55601283611950565b9150611d6082611d1f565b602082019050919050565b60006020820190508181036000830152611d8481611d48565b9050919050565b7f506f737454797065206e6f7420666f756e640000000000000000000000000000600082015250565b6000611dc1601283611950565b9150611dcc82611d8b565b602082019050919050565b60006020820190508181036000830152611df081611db4565b9050919050565b7f506f7374204465736372697074696f6e206e6f7420666f756e64000000000000600082015250565b6000611e2d601a83611950565b9150611e3882611df7565b602082019050919050565b60006020820190508181036000830152611e5c81611e20565b9050919050565b7f506f73744e616d65206e6f7420666f756e640000000000000000000000000000600082015250565b6000611e99601283611950565b9150611ea482611e63565b602082019050919050565b60006020820190508181036000830152611ec881611e8c565b9050919050565b7f506f7374206e6f7420666f756e64000000000000000000000000000000000000600082015250565b6000611f05600e83611950565b9150611f1082611ecf565b602082019050919050565b60006020820190508181036000830152611f3481611ef8565b9050919050565b600061010082019050611f51600083018b611b6c565b8181036020830152611f63818a611961565b9050611f726040830189611b6c565b8181036060830152611f848188611961565b90508181036080830152611f988187611961565b905081810360a0830152611fac8186611961565b9050611fbb60c0830185611b6c565b611fc860e0830184611b7b565b9998505050505050505050565b7f64732d6d6174682d6164642d6f766572666c6f77000000000000000000000000600082015250565b600061200b601483611950565b915061201682611fd5565b602082019050919050565b6000602082019050818103600083015261203a81611ffe565b905091905056fea26469706673582212207bb5b21d9a0ee16a0728c702f8d856971075c862f8b0a8957efaa905401d025564736f6c634300080a0033",
  "linkReferences": {},
  "deployedLinkReferences": {}
}