{
  "_format": "hh-sol-artifact-1",
  "contractName": "TripleeetNFT",
  "sourceName": "contracts/TripleeetNft.sol",
  "abi": [
    {
      "inputs": [],
      "stateMutability": "nonpayable",
      "type": "constructor"
    },
    {
      "anonymous": false,
      "inputs": [
        {
          "indexed": false,
          "internalType": "uint256",
          "name": "nftId",
          "type": "uint256"
        },
        {
          "indexed": false,
          "internalType": "string",
          "name": "nftName",
          "type": "string"
        },
        {
          "indexed": false,
          "internalType": "string",
          "name": "nftDescription",
          "type": "string"
        },
        {
          "indexed": false,
          "internalType": "address",
          "name": "uploader",
          "type": "address"
        }
      ],
      "name": "NftUploaded",
      "type": "event"
    },
    {
      "inputs": [],
      "name": "fetchUserNfts",
      "outputs": [
        {
          "components": [
            {
              "internalType": "uint256",
              "name": "nftId",
              "type": "uint256"
            },
            {
              "internalType": "string",
              "name": "nftName",
              "type": "string"
            },
            {
              "internalType": "string",
              "name": "nftDescription",
              "type": "string"
            },
            {
              "internalType": "address",
              "name": "uploader",
              "type": "address"
            }
          ],
          "internalType": "struct TripleeetNFT.NFT[]",
          "name": "",
          "type": "tuple[]"
        }
      ],
      "stateMutability": "view",
      "type": "function"
    },
    {
      "inputs": [
        {
          "internalType": "string",
          "name": "_nftName",
          "type": "string"
        },
        {
          "internalType": "string",
          "name": "_nftDescription",
          "type": "string"
        }
      ],
      "name": "uploadNft",
      "outputs": [],
      "stateMutability": "nonpayable",
      "type": "function"
    }
  ],
  "bytecode": "0x608060405234801561001057600080fd5b50600160008190555033600260006101000a81548173ffffffffffffffffffffffffffffffffffffffff021916908373ffffffffffffffffffffffffffffffffffffffff16021790555061106c806100696000396000f3fe608060405234801561001057600080fd5b50600436106100365760003560e01c8063d58a899e1461003b578063ebd95b0e14610059575b600080fd5b610043610075565b6040516100509190610a1e565b60405180910390f35b610073600480360381019061006e9190610b89565b610421565b005b6060600061008360016106a1565b905060008060005b83811015610133573373ffffffffffffffffffffffffffffffffffffffff16600360006100c26001856106af90919063ffffffff16565b815260200190815260200160002060030160009054906101000a900473ffffffffffffffffffffffffffffffffffffffff1673ffffffffffffffffffffffffffffffffffffffff1614156101205760018361011d9190610c30565b92505b808061012b90610c86565b91505061008b565b5060008267ffffffffffffffff8111156101505761014f610a5e565b5b60405190808252806020026020018201604052801561018957816020015b61017661071e565b81526020019060019003908161016e5790505b50905060005b84811015610416573373ffffffffffffffffffffffffffffffffffffffff16600360006101c66001856106af90919063ffffffff16565b815260200190815260200160002060030160009054906101000a900473ffffffffffffffffffffffffffffffffffffffff1673ffffffffffffffffffffffffffffffffffffffff16141561040357600061022a6001836106af90919063ffffffff16565b90506000600360008381526020019081526020016000209050806040518060800160405290816000820154815260200160018201805461026990610cfe565b80601f016020809104026020016040519081016040528092919081815260200182805461029590610cfe565b80156102e25780601f106102b7576101008083540402835291602001916102e2565b820191906000526020600020905b8154815290600101906020018083116102c557829003601f168201915b505050505081526020016002820180546102fb90610cfe565b80601f016020809104026020016040519081016040528092919081815260200182805461032790610cfe565b80156103745780601f1061034957610100808354040283529160200191610374565b820191906000526020600020905b81548152906001019060200180831161035757829003601f168201915b505050505081526020016003820160009054906101000a900473ffffffffffffffffffffffffffffffffffffffff1673ffffffffffffffffffffffffffffffffffffffff1673ffffffffffffffffffffffffffffffffffffffff16815250508486815181106103e6576103e5610d30565b5b60200260200101819052506001856103fe9190610c30565b945050505b808061040e90610c86565b91505061018f565b508094505050505090565b60026000541415610467576040517f08c379a000000000000000000000000000000000000000000000000000000000815260040161045e90610dbc565b60405180910390fd5b600260008190555060008151116104b3576040517f08c379a00000000000000000000000000000000000000000000000000000000081526004016104aa90610e28565b60405180910390fd5b60008251116104f7576040517f08c379a00000000000000000000000000000000000000000000000000000000081526004016104ee90610e94565b60405180910390fd5b600073ffffffffffffffffffffffffffffffffffffffff163373ffffffffffffffffffffffffffffffffffffffff161415610567576040517f08c379a000000000000000000000000000000000000000000000000000000000815260040161055e90610f00565b60405180910390fd5b6105716001610708565b600061057d60016106a1565b905060405180608001604052808281526020018481526020018381526020013373ffffffffffffffffffffffffffffffffffffffff16815250600360008381526020019081526020016000206000820151816000015560208201518160010190805190602001906105ef92919061075c565b50604082015181600201908051906020019061060c92919061075c565b5060608201518160030160006101000a81548173ffffffffffffffffffffffffffffffffffffffff021916908373ffffffffffffffffffffffffffffffffffffffff1602179055509050507f3d3850709410a938216364899f542ee99d4425a5da3374fece6eaee44e4835a98184843360405161068c9493929190610f77565b60405180910390a15060016000819055505050565b600081600001549050919050565b60008282846106be9190610c30565b9150811015610702576040517f08c379a00000000000000000000000000000000000000000000000000000000081526004016106f990611016565b60405180910390fd5b92915050565b6001816000016000828254019250508190555050565b6040518060800160405280600081526020016060815260200160608152602001600073ffffffffffffffffffffffffffffffffffffffff1681525090565b82805461076890610cfe565b90600052602060002090601f01602090048101928261078a57600085556107d1565b82601f106107a357805160ff19168380011785556107d1565b828001600101855582156107d1579182015b828111156107d05782518255916020019190600101906107b5565b5b5090506107de91906107e2565b5090565b5b808211156107fb5760008160009055506001016107e3565b5090565b600081519050919050565b600082825260208201905092915050565b6000819050602082019050919050565b6000819050919050565b61083e8161082b565b82525050565b600081519050919050565b600082825260208201905092915050565b60005b8381101561087e578082015181840152602081019050610863565b8381111561088d576000848401525b50505050565b6000601f19601f8301169050919050565b60006108af82610844565b6108b9818561084f565b93506108c9818560208601610860565b6108d281610893565b840191505092915050565b600073ffffffffffffffffffffffffffffffffffffffff82169050919050565b6000610908826108dd565b9050919050565b610918816108fd565b82525050565b60006080830160008301516109366000860182610835565b506020830151848203602086015261094e82826108a4565b9150506040830151848203604086015261096882826108a4565b915050606083015161097d606086018261090f565b508091505092915050565b6000610994838361091e565b905092915050565b6000602082019050919050565b60006109b4826107ff565b6109be818561080a565b9350836020820285016109d08561081b565b8060005b85811015610a0c57848403895281516109ed8582610988565b94506109f88361099c565b925060208a019950506001810190506109d4565b50829750879550505050505092915050565b60006020820190508181036000830152610a3881846109a9565b905092915050565b6000604051905090565b600080fd5b600080fd5b600080fd5b600080fd5b7f4e487b7100000000000000000000000000000000000000000000000000000000600052604160045260246000fd5b610a9682610893565b810181811067ffffffffffffffff82111715610ab557610ab4610a5e565b5b80604052505050565b6000610ac8610a40565b9050610ad48282610a8d565b919050565b600067ffffffffffffffff821115610af457610af3610a5e565b5b610afd82610893565b9050602081019050919050565b82818337600083830152505050565b6000610b2c610b2784610ad9565b610abe565b905082815260208101848484011115610b4857610b47610a59565b5b610b53848285610b0a565b509392505050565b600082601f830112610b7057610b6f610a54565b5b8135610b80848260208601610b19565b91505092915050565b60008060408385031215610ba057610b9f610a4a565b5b600083013567ffffffffffffffff811115610bbe57610bbd610a4f565b5b610bca85828601610b5b565b925050602083013567ffffffffffffffff811115610beb57610bea610a4f565b5b610bf785828601610b5b565b9150509250929050565b7f4e487b7100000000000000000000000000000000000000000000000000000000600052601160045260246000fd5b6000610c3b8261082b565b9150610c468361082b565b9250827fffffffffffffffffffffffffffffffffffffffffffffffffffffffffffffffff03821115610c7b57610c7a610c01565b5b828201905092915050565b6000610c918261082b565b91507fffffffffffffffffffffffffffffffffffffffffffffffffffffffffffffffff821415610cc457610cc3610c01565b5b600182019050919050565b7f4e487b7100000000000000000000000000000000000000000000000000000000600052602260045260246000fd5b60006002820490506001821680610d1657607f821691505b60208210811415610d2a57610d29610ccf565b5b50919050565b7f4e487b7100000000000000000000000000000000000000000000000000000000600052603260045260246000fd5b600082825260208201905092915050565b7f5265656e7472616e637947756172643a207265656e7472616e742063616c6c00600082015250565b6000610da6601f83610d5f565b9150610db182610d70565b602082019050919050565b60006020820190508181036000830152610dd581610d99565b9050919050565b7f4e6674204465736372697074696f6e206e6f7420666f756e6400000000000000600082015250565b6000610e12601983610d5f565b9150610e1d82610ddc565b602082019050919050565b60006020820190508181036000830152610e4181610e05565b9050919050565b7f4e6674204e616d65206e6f7420666f756e640000000000000000000000000000600082015250565b6000610e7e601283610d5f565b9150610e8982610e48565b602082019050919050565b60006020820190508181036000830152610ead81610e71565b9050919050565b7f53656e6465722041646472657373206e6f7420666f756e640000000000000000600082015250565b6000610eea601883610d5f565b9150610ef582610eb4565b602082019050919050565b60006020820190508181036000830152610f1981610edd565b9050919050565b610f298161082b565b82525050565b6000610f3a82610844565b610f448185610d5f565b9350610f54818560208601610860565b610f5d81610893565b840191505092915050565b610f71816108fd565b82525050565b6000608082019050610f8c6000830187610f20565b8181036020830152610f9e8186610f2f565b90508181036040830152610fb28185610f2f565b9050610fc16060830184610f68565b95945050505050565b7f64732d6d6174682d6164642d6f766572666c6f77000000000000000000000000600082015250565b6000611000601483610d5f565b915061100b82610fca565b602082019050919050565b6000602082019050818103600083015261102f81610ff3565b905091905056fea2646970667358221220b0069540487b12e73178ff514f4b9fb553bed36d1a0a301c78cd12c93ab0ad2764736f6c634300080a0033",
  "linkReferences": {},
  "deployedLinkReferences": {}
}